{
  "_format": "hh-sol-artifact-1",
  "contractName": "HoneycombAgentRegistry",
  "sourceName": "contracts/HoneycombAgentRegistry.sol",
  "abi": [
    {
      "inputs": [],
      "stateMutability": "nonpayable",
      "type": "constructor"
    },
    {
      "inputs": [],
      "name": "AccessControlBadConfirmation",
      "type": "error"
    },
    {
      "inputs": [
        {
          "internalType": "address",
          "name": "account",
          "type": "address"
        },
        {
          "internalType": "bytes32",
          "name": "neededRole",
          "type": "bytes32"
        }
      ],
      "name": "AccessControlUnauthorizedAccount",
      "type": "error"
    },
    {
      "inputs": [],
      "name": "AgentAlreadyRegistered",
      "type": "error"
    },
    {
      "inputs": [],
      "name": "AgentNotFound",
      "type": "error"
    },
    {
      "inputs": [],
      "name": "InvalidCID",
      "type": "error"
    },
    {
      "inputs": [],
      "name": "NotAgentOwner",
      "type": "error"
    },
    {
      "inputs": [],
      "name": "ReentrancyGuardReentrantCall",
      "type": "error"
    },
    {
      "anonymous": false,
      "inputs": [
        {
          "indexed": true,
          "internalType": "uint256",
          "name": "agentId",
          "type": "uint256"
        },
        {
          "indexed": true,
          "internalType": "address",
          "name": "owner",
          "type": "address"
        },
        {
          "indexed": false,
          "internalType": "string",
          "name": "metadataCID",
          "type": "string"
        },
        {
          "indexed": false,
          "internalType": "uint256",
          "name": "timestamp",
          "type": "uint256"
        }
      ],
      "name": "AgentRegistered",
      "type": "event"
    },
    {
      "anonymous": false,
      "inputs": [
        {
          "indexed": true,
          "internalType": "uint256",
          "name": "agentId",
          "type": "uint256"
        },
        {
          "indexed": true,
          "internalType": "address",
          "name": "verifier",
          "type": "address"
        },
        {
          "indexed": false,
          "internalType": "uint256",
          "name": "timestamp",
          "type": "uint256"
        }
      ],
      "name": "AgentUnverified",
      "type": "event"
    },
    {
      "anonymous": false,
      "inputs": [
        {
          "indexed": true,
          "internalType": "uint256",
          "name": "agentId",
          "type": "uint256"
        },
        {
          "indexed": false,
          "internalType": "string",
          "name": "metadataCID",
          "type": "string"
        },
        {
          "indexed": false,
          "internalType": "uint256",
          "name": "timestamp",
          "type": "uint256"
        }
      ],
      "name": "AgentUpdated",
      "type": "event"
    },
    {
      "anonymous": false,
      "inputs": [
        {
          "indexed": true,
          "internalType": "uint256",
          "name": "agentId",
          "type": "uint256"
        },
        {
          "indexed": true,
          "internalType": "address",
          "name": "verifier",
          "type": "address"
        },
        {
          "indexed": false,
          "internalType": "bytes32",
          "name": "tag",
          "type": "bytes32"
        },
        {
          "indexed": false,
          "internalType": "uint256",
          "name": "timestamp",
          "type": "uint256"
        }
      ],
      "name": "AgentVerified",
      "type": "event"
    },
    {
      "anonymous": false,
      "inputs": [
        {
          "indexed": true,
          "internalType": "bytes32",
          "name": "role",
          "type": "bytes32"
        },
        {
          "indexed": true,
          "internalType": "bytes32",
          "name": "previousAdminRole",
          "type": "bytes32"
        },
        {
          "indexed": true,
          "internalType": "bytes32",
          "name": "newAdminRole",
          "type": "bytes32"
        }
      ],
      "name": "RoleAdminChanged",
      "type": "event"
    },
    {
      "anonymous": false,
      "inputs": [
        {
          "indexed": true,
          "internalType": "bytes32",
          "name": "role",
          "type": "bytes32"
        },
        {
          "indexed": true,
          "internalType": "address",
          "name": "account",
          "type": "address"
        },
        {
          "indexed": true,
          "internalType": "address",
          "name": "sender",
          "type": "address"
        }
      ],
      "name": "RoleGranted",
      "type": "event"
    },
    {
      "anonymous": false,
      "inputs": [
        {
          "indexed": true,
          "internalType": "bytes32",
          "name": "role",
          "type": "bytes32"
        },
        {
          "indexed": true,
          "internalType": "address",
          "name": "account",
          "type": "address"
        },
        {
          "indexed": true,
          "internalType": "address",
          "name": "sender",
          "type": "address"
        }
      ],
      "name": "RoleRevoked",
      "type": "event"
    },
    {
      "inputs": [],
      "name": "ADMIN_ROLE",
      "outputs": [
        {
          "internalType": "bytes32",
          "name": "",
          "type": "bytes32"
        }
      ],
      "stateMutability": "view",
      "type": "function"
    },
    {
      "inputs": [],
      "name": "DEFAULT_ADMIN_ROLE",
      "outputs": [
        {
          "internalType": "bytes32",
          "name": "",
          "type": "bytes32"
        }
      ],
      "stateMutability": "view",
      "type": "function"
    },
    {
      "inputs": [],
      "name": "VERIFIER_ROLE",
      "outputs": [
        {
          "internalType": "bytes32",
          "name": "",
          "type": "bytes32"
        }
      ],
      "stateMutability": "view",
      "type": "function"
    },
    {
      "inputs": [
        {
          "internalType": "uint256",
          "name": "",
          "type": "uint256"
        }
      ],
      "name": "agentExists",
      "outputs": [
        {
          "internalType": "bool",
          "name": "",
          "type": "bool"
        }
      ],
      "stateMutability": "view",
      "type": "function"
    },
    {
      "inputs": [
        {
          "internalType": "uint256",
          "name": "",
          "type": "uint256"
        }
      ],
      "name": "agents",
      "outputs": [
        {
          "internalType": "uint256",
          "name": "id",
          "type": "uint256"
        },
        {
          "internalType": "address",
          "name": "owner",
          "type": "address"
        },
        {
          "internalType": "string",
          "name": "metadataCID",
          "type": "string"
        },
        {
          "internalType": "uint256",
          "name": "createdAt",
          "type": "uint256"
        },
        {
          "internalType": "bool",
          "name": "verified",
          "type": "bool"
        },
        {
          "internalType": "bytes32",
          "name": "verifiedTag",
          "type": "bytes32"
        }
      ],
      "stateMutability": "view",
      "type": "function"
    },
    {
      "inputs": [
        {
          "internalType": "uint256",
          "name": "agentId",
          "type": "uint256"
        }
      ],
      "name": "getAgent",
      "outputs": [
        {
          "components": [
            {
              "internalType": "uint256",
              "name": "id",
              "type": "uint256"
            },
            {
              "internalType": "address",
              "name": "owner",
              "type": "address"
            },
            {
              "internalType": "string",
              "name": "metadataCID",
              "type": "string"
            },
            {
              "internalType": "uint256",
              "name": "createdAt",
              "type": "uint256"
            },
            {
              "internalType": "bool",
              "name": "verified",
              "type": "bool"
            },
            {
              "internalType": "bytes32",
              "name": "verifiedTag",
              "type": "bytes32"
            }
          ],
          "internalType": "struct HoneycombAgentRegistry.Agent",
          "name": "",
          "type": "tuple"
        }
      ],
      "stateMutability": "view",
      "type": "function"
    },
    {
      "inputs": [
        {
          "internalType": "address",
          "name": "owner",
          "type": "address"
        }
      ],
      "name": "getAgentByOwner",
      "outputs": [
        {
          "internalType": "uint256",
          "name": "",
          "type": "uint256"
        }
      ],
      "stateMutability": "view",
      "type": "function"
    },
    {
      "inputs": [
        {
          "internalType": "bytes32",
          "name": "role",
          "type": "bytes32"
        }
      ],
      "name": "getRoleAdmin",
      "outputs": [
        {
          "internalType": "bytes32",
          "name": "",
          "type": "bytes32"
        }
      ],
      "stateMutability": "view",
      "type": "function"
    },
    {
      "inputs": [
        {
          "internalType": "bytes32",
          "name": "role",
          "type": "bytes32"
        },
        {
          "internalType": "address",
          "name": "account",
          "type": "address"
        }
      ],
      "name": "grantRole",
      "outputs": [],
      "stateMutability": "nonpayable",
      "type": "function"
    },
    {
      "inputs": [
        {
          "internalType": "bytes32",
          "name": "role",
          "type": "bytes32"
        },
        {
          "internalType": "address",
          "name": "account",
          "type": "address"
        }
      ],
      "name": "hasRole",
      "outputs": [
        {
          "internalType": "bool",
          "name": "",
          "type": "bool"
        }
      ],
      "stateMutability": "view",
      "type": "function"
    },
    {
      "inputs": [
        {
          "internalType": "address",
          "name": "owner",
          "type": "address"
        },
        {
          "internalType": "uint256",
          "name": "agentId",
          "type": "uint256"
        }
      ],
      "name": "isAgentOwner",
      "outputs": [
        {
          "internalType": "bool",
          "name": "",
          "type": "bool"
        }
      ],
      "stateMutability": "view",
      "type": "function"
    },
    {
      "inputs": [
        {
          "internalType": "address",
          "name": "",
          "type": "address"
        }
      ],
      "name": "ownerToAgentId",
      "outputs": [
        {
          "internalType": "uint256",
          "name": "",
          "type": "uint256"
        }
      ],
      "stateMutability": "view",
      "type": "function"
    },
    {
      "inputs": [
        {
          "internalType": "string",
          "name": "metadataCID",
          "type": "string"
        }
      ],
      "name": "registerAgent",
      "outputs": [
        {
          "internalType": "uint256",
          "name": "agentId",
          "type": "uint256"
        }
      ],
      "stateMutability": "nonpayable",
      "type": "function"
    },
    {
      "inputs": [
        {
          "internalType": "bytes32",
          "name": "role",
          "type": "bytes32"
        },
        {
          "internalType": "address",
          "name": "callerConfirmation",
          "type": "address"
        }
      ],
      "name": "renounceRole",
      "outputs": [],
      "stateMutability": "nonpayable",
      "type": "function"
    },
    {
      "inputs": [
        {
          "internalType": "bytes32",
          "name": "role",
          "type": "bytes32"
        },
        {
          "internalType": "address",
          "name": "account",
          "type": "address"
        }
      ],
      "name": "revokeRole",
      "outputs": [],
      "stateMutability": "nonpayable",
      "type": "function"
    },
    {
      "inputs": [
        {
          "internalType": "bytes4",
          "name": "interfaceId",
          "type": "bytes4"
        }
      ],
      "name": "supportsInterface",
      "outputs": [
        {
          "internalType": "bool",
          "name": "",
          "type": "bool"
        }
      ],
      "stateMutability": "view",
      "type": "function"
    },
    {
      "inputs": [],
      "name": "totalAgents",
      "outputs": [
        {
          "internalType": "uint256",
          "name": "",
          "type": "uint256"
        }
      ],
      "stateMutability": "view",
      "type": "function"
    },
    {
      "inputs": [
        {
          "internalType": "uint256",
          "name": "agentId",
          "type": "uint256"
        }
      ],
      "name": "unverifyAgent",
      "outputs": [],
      "stateMutability": "nonpayable",
      "type": "function"
    },
    {
      "inputs": [
        {
          "internalType": "uint256",
          "name": "agentId",
          "type": "uint256"
        },
        {
          "internalType": "string",
          "name": "metadataCID",
          "type": "string"
        }
      ],
      "name": "updateAgent",
      "outputs": [],
      "stateMutability": "nonpayable",
      "type": "function"
    },
    {
      "inputs": [
        {
          "internalType": "uint256",
          "name": "agentId",
          "type": "uint256"
        },
        {
          "internalType": "bytes32",
          "name": "tag",
          "type": "bytes32"
        }
      ],
      "name": "verifyAgent",
      "outputs": [],
      "stateMutability": "nonpayable",
      "type": "function"
    }
  ],
  "bytecode": "0x60806040523461003f5760018055600160025561001b33610044565b50610025336100c2565b5061002f33610162565b5060405161106390816101fe8239f35b600080fd5b6001600160a01b031660008181527fad3228b676f7d3cd4284a5443f17f1962b36e491b30a40b2405849e597ba5fb5602052604081205490919060ff166100be57818052816020526040822081835260205260408220600160ff1982541617905533916000805160206112618339815191528180a4600190565b5090565b6001600160a01b031660008181527f7d7ffb7a348e1c6a02869081a26547b49160dd3df72d1d75a570eb9b698292ec60205260408120549091907fa49807205ce4d355092ef5a8a18f56e8913cf4a201fbe287825b095693c217759060ff1661015d57808352826020526040832082845260205260408320600160ff19825416179055600080516020611261833981519152339380a4600190565b505090565b6001600160a01b031660008181527f1da0b5176dfe03406af5a6eed66ca01dda9b45ac4da671c3fa379cb93717ef8160205260408120549091907f0ce23c3e399818cfee81a7ab0880f714e53d7672b08df0fa62f2843416e1ea099060ff1661015d57808352826020526040832082845260205260408320600160ff19825416179055600080516020611261833981519152339380a460019056fe608080604052600436101561001357600080fd5b60003560e01c90816301ffc9a714610c62575080630381ee791461013b5780631faffdd214610b64578063248a9ca314610b355780632d2a9585146108795780632de5aaf71461076b5780632f2ff15d1461072c57806336568abe146106e55780634744f2c914610682578063513856c8146105f857806375b238fc146105bd57806391d14854146105705780639964c10c1461043a578063a217fddf1461041e578063c5053712146103dd578063d52f1bca146101e7578063d547741f146101a6578063de99f15714610175578063e46d717f1461013b5763e7705db6146100fb57600080fd5b346101365760003660031901126101365760206040517f0ce23c3e399818cfee81a7ab0880f714e53d7672b08df0fa62f2843416e1ea098152f35b600080fd5b34610136576020366003190112610136576001600160a01b0361015c610cb5565b1660005260046020526020604060002054604051908152f35b34610136576020366003190112610136576004356000526005602052602060ff604060002054166040519015158152f35b34610136576040366003190112610136576101e56004356101c5610ccb565b908060005260006020526101e0600160406000200154610ef1565b610fb8565b005b346101365760403660031901126101365760043567ffffffffffffffff6024358181116101365761021c903690600401610ce1565b9290610226610f17565b816000526020936005855260ff60406000205416156103cb57826000526003855260019360018060a01b0385604060002001541633036103b95781156103a75783600052600386526002604060002001908211610391576102918261028b8354610d4f565b83610e6c565b600095601f831160011461030b57506102e582807f150cd089408b0f5f4a0002310b75a112412f1bc8d9d4463e97da392283893a16969798600091610300575b508160011b916000199060031b1c19161790565b90555b6102f9604051928392429184610ec2565b0390a28055005b9050850135896102d1565b601f198316968260005281600020916000905b89821061037a575050837f150cd089408b0f5f4a0002310b75a112412f1bc8d9d4463e97da392283893a1696979810610360575b50508582811b0190556102e8565b840135600019600385901b60f8161c191690558680610352565b808984958294958a0135815501940192019061031e565b634e487b7160e01b600052604160045260246000fd5b604051633875d9bd60e21b8152600490fd5b604051630e41dcbf60e21b8152600490fd5b60405163e93ba22360e01b8152600490fd5b3461013657600036600319011261013657600254600019810190811161040857602090604051908152f35b634e487b7160e01b600052601160045260246000fd5b3461013657600036600319011261013657602060405160008152f35b346101365760208060031936011261013657600435806000526005825260ff60406000205416156103cb577f0ce23c3e399818cfee81a7ab0880f714e53d7672b08df0fa62f2843416e1ea0960005260008252604060002033600052825260ff60406000205416801561052e575b156104f857806000526003825260006005604082206004810160ff19815416905501557f83934406f3a14535859059ec85cc79140b871327a4984a9a977f6d61bf76f067604051924284523393a3005b60405162461bcd60e51b815260048101839052600e60248201526d139bdd08185d5d1a1bdc9a5e995960921b6044820152606490fd5b507fa49807205ce4d355092ef5a8a18f56e8913cf4a201fbe287825b095693c2177560005260008252604060002033600052825260ff604060002054166104a8565b3461013657604036600319011261013657610589610ccb565b600435600052600060205260406000209060018060a01b0316600052602052602060ff604060002054166040519015158152f35b346101365760003660031901126101365760206040517fa49807205ce4d355092ef5a8a18f56e8913cf4a201fbe287825b095693c217758152f35b34610136576020366003190112610136576004356000908152600360205260409020805460018201546001600160a01b03169161063760028201610dc7565b60038201549161066c600560ff600484015416920154926040519687968752602087015260c0604087015260c0860190610d0f565b9260608501521515608084015260a08301520390f35b3461013657604036600319011261013657602061069d610cb5565b6024356000526005825260ff6040600020541690816106c2575b506040519015158152f35b600383526040600020600101546001600160a01b039182169116149050826106b7565b34610136576040366003190112610136576106fe610ccb565b336001600160a01b0382160361071a576101e590600435610fb8565b60405163334bd91960e11b8152600490fd5b34610136576040366003190112610136576101e560043561074b610ccb565b90806000526000602052610766600160406000200154610ef1565b610f3a565b346101365760208060031936011261013657600435600060a060405161079081610d89565b8281528285820152606060408201528260608201528260808201520152806000526005825260ff60406000205416156103cb57600052600381526040600020604051906107dc82610d89565b8054825260018101546001600160a01b03908116848401908152909161086061080760028301610dc7565b6040860190815260038301549460608701958652600560ff6004860154169460808901951515865201549460a08801958652604051988998818a525190890152511660408701525160c0606087015260e0860190610d0f565b9251608085015251151560a08401525160c08301520390f35b346101365760203660031901126101365767ffffffffffffffff600435818111610136576108ab903690600401610ce1565b6108b3610f17565b80156103a757336000526004602052604060002054610b23576002549160001983146104085760018301600255604051906108ed82610d89565b838252602082019133835285841161039157604051610916601f8601601f191660200182610da5565b848152368584011161013657848360208301376000602086830101526040820190815242606083015260006080830152600060a083015285600052600360205260406000209382518555600185019060018060a01b039051166bffffffffffffffffffffffff60a01b82541617905551928351968711610391578686946109af6020996109a66002860154610d4f565b60028601610e6c565b8890601f8311600114610a8b5782610a7195937fc29f819ac362ff9c94de06666235808451aafd8894a2dffb86a080a965efeae3979593610a0793600092610a80575b50508160011b916000199060031b1c19161790565b60028201555b60608201516003820155600560a06004830193608081015115159460ff199560ff8783541691161790550151910155336000526004885284604060002055846000526005885260016040600020918254161790556040519182913396429184610ec2565b0390a360018055604051908152f35b015190508c806109f2565b9060028401600052896000209160005b601f1985168110610b095750927fc29f819ac362ff9c94de06666235808451aafd8894a2dffb86a080a965efeae3969492600192610a71979583601f19811610610af0575b505050811b016002820155610a0d565b015160001960f88460031b161c191690558b8080610ae0565b8183015184558a9850600190930192918b01918b01610a9b565b60405163704c69f760e11b8152600490fd5b346101365760203660031901126101365760043560005260006020526020600160406000200154604051908152f35b34610136576040366003190112610136573360009081527f1da0b5176dfe03406af5a6eed66ca01dda9b45ac4da671c3fa379cb93717ef81602052604090205460243590600435907f0ce23c3e399818cfee81a7ab0880f714e53d7672b08df0fa62f2843416e1ea099060ff1615610c44575080600052600560205260ff60406000205416156103cb57806000526003602052816005604060002060048101600160ff1982541617905501556040519182524260208301527f18d8ae9114ed1e0dd95e501c05e1626d796518c717990e623dab9817ac10853460403393a3005b6044906040519063e2517d3f60e01b82523360048301526024820152fd5b34610136576020366003190112610136576004359063ffffffff60e01b821680920361013657602091637965db0b60e01b8114908115610ca4575b5015158152f35b6301ffc9a760e01b14905083610c9d565b600435906001600160a01b038216820361013657565b602435906001600160a01b038216820361013657565b9181601f840112156101365782359167ffffffffffffffff8311610136576020838186019501011161013657565b919082519283825260005b848110610d3b575050826000602080949584010152601f8019910116010190565b602081830181015184830182015201610d1a565b90600182811c92168015610d7f575b6020831014610d6957565b634e487b7160e01b600052602260045260246000fd5b91607f1691610d5e565b60c0810190811067ffffffffffffffff82111761039157604052565b90601f8019910116810190811067ffffffffffffffff82111761039157604052565b90604051918260008254610dda81610d4f565b90818452602094600191600181169081600014610e4a5750600114610e0b575b505050610e0992500383610da5565b565b600090815285812095935091905b818310610e32575050610e099350820101388080610dfa565b85548884018501529485019487945091830191610e19565b92505050610e0994925060ff191682840152151560051b820101388080610dfa565b90601f8111610e7a57505050565b6000916000526020600020906020601f850160051c83019410610eb8575b601f0160051c01915b828110610ead57505050565b818155600101610ea1565b9092508290610e98565b9392918060609160209360408852816040890152838801376000828288010152601f8019910116850101930152565b80600052600060205260406000203360005260205260ff6040600020541615610c445750565b600260015414610f28576002600155565b604051633ee5aeb560e01b8152600490fd5b9060009180835282602052604083209160018060a01b03169182845260205260ff60408420541615600014610fb357808352826020526040832082845260205260408320600160ff198254161790557f2f8788117e7eff1d82e926ec794901d17c78024a50270940304540a733656f0d339380a4600190565b505090565b9060009180835282602052604083209160018060a01b03169182845260205260ff604084205416600014610fb35780835282602052604083208284526020526040832060ff1981541690557ff6391f5c32d9c69d2a47ea670b442974b53935d1edc7fd64eb21e047a839171b339380a460019056fea264697066735822122080ac09561d19e683fe5706423070c86c63212986daa8adebeb1a7c98d9e0e62f64736f6c634300081800332f8788117e7eff1d82e926ec794901d17c78024a50270940304540a733656f0d",
  "linkReferences": {},
  "deployedLinkReferences": {}
}