{
  "_format": "hh-sol-artifact-1",
  "contractName": "AutoGraduator",
  "sourceName": "contracts/launchpad/AutoGraduator.sol",
  "abi": [
    {
      "inputs": [
        {
          "internalType": "address",
          "name": "_bondingCurveMarket",
          "type": "address"
        },
        {
          "internalType": "address",
          "name": "_migration",
          "type": "address"
        },
        {
          "internalType": "address",
          "name": "_tokenFactory",
          "type": "address"
        }
      ],
      "stateMutability": "nonpayable",
      "type": "constructor"
    },
    {
      "inputs": [],
      "name": "AlreadyGraduated",
      "type": "error"
    },
    {
      "inputs": [],
      "name": "GraduationFailed",
      "type": "error"
    },
    {
      "inputs": [],
      "name": "InsufficientGas",
      "type": "error"
    },
    {
      "inputs": [],
      "name": "NotReadyForGraduation",
      "type": "error"
    },
    {
      "inputs": [
        {
          "internalType": "address",
          "name": "owner",
          "type": "address"
        }
      ],
      "name": "OwnableInvalidOwner",
      "type": "error"
    },
    {
      "inputs": [
        {
          "internalType": "address",
          "name": "account",
          "type": "address"
        }
      ],
      "name": "OwnableUnauthorizedAccount",
      "type": "error"
    },
    {
      "inputs": [],
      "name": "ReentrancyGuardReentrantCall",
      "type": "error"
    },
    {
      "anonymous": false,
      "inputs": [
        {
          "indexed": true,
          "internalType": "address",
          "name": "token",
          "type": "address"
        },
        {
          "indexed": true,
          "internalType": "address",
          "name": "graduator",
          "type": "address"
        },
        {
          "indexed": false,
          "internalType": "uint256",
          "name": "totalRaised",
          "type": "uint256"
        },
        {
          "indexed": false,
          "internalType": "uint256",
          "name": "reward",
          "type": "uint256"
        },
        {
          "indexed": false,
          "internalType": "uint256",
          "name": "timestamp",
          "type": "uint256"
        }
      ],
      "name": "GraduationTriggered",
      "type": "event"
    },
    {
      "anonymous": false,
      "inputs": [
        {
          "indexed": true,
          "internalType": "address",
          "name": "previousOwner",
          "type": "address"
        },
        {
          "indexed": true,
          "internalType": "address",
          "name": "newOwner",
          "type": "address"
        }
      ],
      "name": "OwnershipTransferred",
      "type": "event"
    },
    {
      "anonymous": false,
      "inputs": [
        {
          "indexed": true,
          "internalType": "address",
          "name": "token",
          "type": "address"
        },
        {
          "indexed": false,
          "internalType": "uint256",
          "name": "timestamp",
          "type": "uint256"
        }
      ],
      "name": "TokenAddedToPending",
      "type": "event"
    },
    {
      "anonymous": false,
      "inputs": [
        {
          "indexed": true,
          "internalType": "address",
          "name": "token",
          "type": "address"
        },
        {
          "indexed": false,
          "internalType": "uint256",
          "name": "timestamp",
          "type": "uint256"
        }
      ],
      "name": "TokenRemovedFromPending",
      "type": "event"
    },
    {
      "inputs": [],
      "name": "BPS_DENOMINATOR",
      "outputs": [
        {
          "internalType": "uint256",
          "name": "",
          "type": "uint256"
        }
      ],
      "stateMutability": "view",
      "type": "function"
    },
    {
      "inputs": [
        {
          "internalType": "address[]",
          "name": "tokens",
          "type": "address[]"
        }
      ],
      "name": "batchGraduate",
      "outputs": [
        {
          "internalType": "uint256",
          "name": "successCount",
          "type": "uint256"
        }
      ],
      "stateMutability": "nonpayable",
      "type": "function"
    },
    {
      "inputs": [],
      "name": "bondingCurveMarket",
      "outputs": [
        {
          "internalType": "contract IBondingCurveMarket",
          "name": "",
          "type": "address"
        }
      ],
      "stateMutability": "view",
      "type": "function"
    },
    {
      "inputs": [],
      "name": "fund",
      "outputs": [],
      "stateMutability": "payable",
      "type": "function"
    },
    {
      "inputs": [
        {
          "internalType": "address",
          "name": "token",
          "type": "address"
        }
      ],
      "name": "getGraduationStatus",
      "outputs": [
        {
          "internalType": "bool",
          "name": "isGraduated",
          "type": "bool"
        },
        {
          "internalType": "bool",
          "name": "isReady",
          "type": "bool"
        },
        {
          "internalType": "uint256",
          "name": "totalRaised",
          "type": "uint256"
        },
        {
          "internalType": "uint256",
          "name": "threshold",
          "type": "uint256"
        },
        {
          "internalType": "uint256",
          "name": "graduatedAt",
          "type": "uint256"
        }
      ],
      "stateMutability": "view",
      "type": "function"
    },
    {
      "inputs": [
        {
          "internalType": "uint256",
          "name": "startIndex",
          "type": "uint256"
        },
        {
          "internalType": "uint256",
          "name": "count",
          "type": "uint256"
        }
      ],
      "name": "getReadyTokens",
      "outputs": [
        {
          "internalType": "address[]",
          "name": "readyTokens",
          "type": "address[]"
        },
        {
          "internalType": "uint256",
          "name": "readyCount",
          "type": "uint256"
        }
      ],
      "stateMutability": "view",
      "type": "function"
    },
    {
      "inputs": [
        {
          "internalType": "address",
          "name": "token",
          "type": "address"
        }
      ],
      "name": "graduateToken",
      "outputs": [
        {
          "internalType": "bool",
          "name": "success",
          "type": "bool"
        }
      ],
      "stateMutability": "nonpayable",
      "type": "function"
    },
    {
      "inputs": [
        {
          "internalType": "address",
          "name": "",
          "type": "address"
        }
      ],
      "name": "graduatedTokens",
      "outputs": [
        {
          "internalType": "bool",
          "name": "",
          "type": "bool"
        }
      ],
      "stateMutability": "view",
      "type": "function"
    },
    {
      "inputs": [
        {
          "internalType": "address",
          "name": "",
          "type": "address"
        }
      ],
      "name": "graduationTimestamp",
      "outputs": [
        {
          "internalType": "uint256",
          "name": "",
          "type": "uint256"
        }
      ],
      "stateMutability": "view",
      "type": "function"
    },
    {
      "inputs": [],
      "name": "graduatorRewardBps",
      "outputs": [
        {
          "internalType": "uint256",
          "name": "",
          "type": "uint256"
        }
      ],
      "stateMutability": "view",
      "type": "function"
    },
    {
      "inputs": [
        {
          "internalType": "address",
          "name": "token",
          "type": "address"
        }
      ],
      "name": "isReadyForGraduation",
      "outputs": [
        {
          "internalType": "bool",
          "name": "",
          "type": "bool"
        }
      ],
      "stateMutability": "view",
      "type": "function"
    },
    {
      "inputs": [],
      "name": "maxTokensPerCheck",
      "outputs": [
        {
          "internalType": "uint256",
          "name": "",
          "type": "uint256"
        }
      ],
      "stateMutability": "view",
      "type": "function"
    },
    {
      "inputs": [],
      "name": "migration",
      "outputs": [
        {
          "internalType": "contract IMigration",
          "name": "",
          "type": "address"
        }
      ],
      "stateMutability": "view",
      "type": "function"
    },
    {
      "inputs": [],
      "name": "minGasForGraduation",
      "outputs": [
        {
          "internalType": "uint256",
          "name": "",
          "type": "uint256"
        }
      ],
      "stateMutability": "view",
      "type": "function"
    },
    {
      "inputs": [],
      "name": "owner",
      "outputs": [
        {
          "internalType": "address",
          "name": "",
          "type": "address"
        }
      ],
      "stateMutability": "view",
      "type": "function"
    },
    {
      "inputs": [
        {
          "internalType": "uint256",
          "name": "",
          "type": "uint256"
        }
      ],
      "name": "pendingTokens",
      "outputs": [
        {
          "internalType": "address",
          "name": "",
          "type": "address"
        }
      ],
      "stateMutability": "view",
      "type": "function"
    },
    {
      "inputs": [],
      "name": "renounceOwnership",
      "outputs": [],
      "stateMutability": "nonpayable",
      "type": "function"
    },
    {
      "inputs": [
        {
          "internalType": "uint256",
          "name": "startIndex",
          "type": "uint256"
        }
      ],
      "name": "scanAndGraduate",
      "outputs": [
        {
          "internalType": "uint256",
          "name": "successCount",
          "type": "uint256"
        },
        {
          "internalType": "uint256",
          "name": "nextIndex",
          "type": "uint256"
        }
      ],
      "stateMutability": "nonpayable",
      "type": "function"
    },
    {
      "inputs": [
        {
          "internalType": "uint256",
          "name": "_minGasForGraduation",
          "type": "uint256"
        },
        {
          "internalType": "uint256",
          "name": "_maxTokensPerCheck",
          "type": "uint256"
        },
        {
          "internalType": "uint256",
          "name": "_graduatorRewardBps",
          "type": "uint256"
        }
      ],
      "name": "setConfig",
      "outputs": [],
      "stateMutability": "nonpayable",
      "type": "function"
    },
    {
      "inputs": [
        {
          "internalType": "address",
          "name": "_bondingCurveMarket",
          "type": "address"
        },
        {
          "internalType": "address",
          "name": "_migration",
          "type": "address"
        },
        {
          "internalType": "address",
          "name": "_tokenFactory",
          "type": "address"
        }
      ],
      "name": "setContracts",
      "outputs": [],
      "stateMutability": "nonpayable",
      "type": "function"
    },
    {
      "inputs": [],
      "name": "tokenFactory",
      "outputs": [
        {
          "internalType": "contract ITokenFactory",
          "name": "",
          "type": "address"
        }
      ],
      "stateMutability": "view",
      "type": "function"
    },
    {
      "inputs": [],
      "name": "totalGraduations",
      "outputs": [
        {
          "internalType": "uint256",
          "name": "",
          "type": "uint256"
        }
      ],
      "stateMutability": "view",
      "type": "function"
    },
    {
      "inputs": [
        {
          "internalType": "address",
          "name": "newOwner",
          "type": "address"
        }
      ],
      "name": "transferOwnership",
      "outputs": [],
      "stateMutability": "nonpayable",
      "type": "function"
    },
    {
      "inputs": [
        {
          "internalType": "address",
          "name": "to",
          "type": "address"
        },
        {
          "internalType": "uint256",
          "name": "amount",
          "type": "uint256"
        }
      ],
      "name": "withdraw",
      "outputs": [],
      "stateMutability": "nonpayable",
      "type": "function"
    },
    {
      "stateMutability": "payable",
      "type": "receive"
    }
  ],
  "bytecode": "0x60803461011457601f620016d138819003918201601f19168301916001600160401b0383118484101761011957808492606094604052833981010312610114576100488161012f565b61006060406100596020850161012f565b930161012f565b9133156100fb57600080546001600160a01b03198082163390811784556040519691956001600160a01b039592948694859391908416907f8be0079c531659141344cd1fd0a4f28419497f9722a3daafe3b4186f6b6457e09080a360018055620493e06005556032600655603260075516856002541617600255168360035416176003551690600454161760045561158d9081620001448239f35b604051631e4fbdf760e01b815260006004820152602490fd5b600080fd5b634e487b7160e01b600052604160045260246000fd5b51906001600160a01b03821682036101145756fe6080604081815260049081361015610022575b505050361561002057600080fd5b005b600092833560e01c9081630a3dadc014610af457508063129ee21a14610ac65780631705a3bd14610a9d5780631ddb084d14610a7e57806329b8e2e3146108e5578063352fc85f1461088e5780633d1c243b146108585780636473f63a14610577578063715018a61461051d5780638da5cb5b146104f557806391644bb5146104cc57806397f548f714610491578063af508b1314610472578063b125d6261461043a578063b3066d4914610382578063b60d428814610370578063bcafe5ff14610341578063d2b43bca14610322578063e1a4521814610305578063e594e137146102c3578063e77772fe1461029b578063ef8e57461461022f578063f2fde38b146101a85763f3fef3a30361001257346101a457806003193601126101a4578280808061014f610b10565b6101576114e8565b602435905af1610165610c24565b501561016f578280f35b906020606492519162461bcd60e51b8352820152600f60248201526e151c985b9cd9995c8819985a5b1959608a1b6044820152fd5b8280fd5b5090346101a45760203660031901126101a4576101c3610b10565b906101cc6114e8565b6001600160a01b0391821692831561021957505082546001600160a01b0319811683178455167f8be0079c531659141344cd1fd0a4f28419497f9722a3daafe3b4186f6b6457e08380a380f35b51631e4fbdf760e01b8152908101849052602490fd5b5090346101a457816003193601126101a45761024f906024359035611329565b92825192808401908452825180915260608401926020809101925b82811061027e578580868960208301520390f35b83516001600160a01b03168552938101939281019260010161026a565b5090346101a457826003193601126101a4575490516001600160a01b03909116815260209150f35b8382346103015760203660031901126103015760209160ff9082906001600160a01b036102ee610b10565b1681526008855220541690519015158152f35b5080fd5b838234610301578160031936011261030157602090516127108152f35b8382346103015781600319360112610301576020906005549051908152f35b83823461030157602036600319011261030157602090610367610362610b10565b611216565b90519015158152f35b838060031936011261037f5780f35b80fd5b5050346103015760603660031901126103015761039d610b10565b6024356001600160a01b03818116918290036104365760443592818416809403610432576103c96114e8565b1680610414575b50806103f6575b50806103e1578280f35b81546001600160a01b03191617905538808280f35b6bffffffffffffffffffffffff60a01b6003541617600355386103d7565b6bffffffffffffffffffffffff60a01b6002541617600255386103d0565b8580fd5b8480fd5b8382346103015760203660031901126103015760209181906001600160a01b03610462610b10565b1681526009845220549051908152f35b8382346103015781600319360112610301576020906006549051908152f35b838234610301576020366003190112610301576020906104bf6104b2610b10565b6104ba611514565b610fd6565b9060018055519015158152f35b83823461030157816003193601126103015760025490516001600160a01b039091168152602090f35b838234610301578160031936011261030157905490516001600160a01b039091168152602090f35b833461037f578060031936011261037f576105366114e8565b80546001600160a01b03198116825581906001600160a01b03167f8be0079c531659141344cd1fd0a4f28419497f9722a3daafe3b4186f6b6457e08280a380f35b50346101a4576020928360031936011261037f5782359267ffffffffffffffff908185116101a457366023860112156101a457848101359182116101a4576024926005953660248560051b83010111610301576105d2611514565b81965a6105e186600554610c11565b1161084857825b8581106105fc578989896001805551908152f35b80821b83018701356001600160a01b0381811691829003610432578186526008808d5260ff8b8820541661083d578160035416918d8c5190633ef03e7560e11b8252858b830152818d81875afa9081156107ed578f8a92610803575b5050156107f75760025416918b518093638e8f294b60e01b8252858b830152818d60c09687935afa9384156107ed5789946107b8575b5050803b156107b457908d9188858d8f838e9151958694859363ce5494bb60e01b85528401525af190816107a5575b506106d1575b505050506001905b016105e8565b9b600961070892859e600197968b5281528d8a208760ff1982541617905552428c892055600b6107018154610be3565b9055610be3565b9a61271061071860075484610c11565b04918215158061079b575b15610771578780808086335af1610738610c24565b5015610771578b519081526020810192909252426040830152339160008051602061153883398151915290606090a35b90388b816106c3565b91508a51918252868d830152428b83015260008051602061153883398151915260603393a3610768565b5082471015610723565b6107ae90610b2b565b386106bd565b8780fd5b6107d8929450803d106107e6575b6107d08183610b55565b810190610b84565b50505091505091388061068e565b503d6107c6565b8d513d8b823e3d90fd5b505050506001906106cb565b90809250813d8311610836575b61081a8183610b55565b810103126108325761082b90610b77565b388f610658565b8880fd5b503d610810565b5050506001906106cb565b86516307099c5360e21b81528490fd5b50913461037f57602036600319011261037f575061087e90610878611514565b35610c64565b6001805582519182526020820152f35b5090346101a45760203660031901126101a45735600a548110156101a457600a6020935260018060a01b03907fc65a7bb8d6351c1cf70c95a316cc6a92839c986682d98bc35f958f4883f9d2a80154169051908152f35b50346101a45760209182600319360112610a7a576001600160a01b03918261090b610b10565b16908186526008855260ff8187205416159485948596610a0f575b6002548351638e8f294b60e01b815286810186905294911660c085602481845afa948515610a055789956109dc575b508290845196878092638b0bc50160e01b82525afa9485156109d25788956109a2575b5087839160a099526009835220549482519615875215159086015284015260608301526080820152f35b9094508181813d83116109cb575b6109ba8183610b55565b810103126107b457519360a0610978565b503d6109b0565b83513d8a823e3d90fd5b839195506109f89060c03d60c0116107e6576107d08183610b55565b5050509150509490610955565b84513d8b823e3d90fd5b94506024818660035416845192838092633ef03e7560e11b8252888a8301525afa9081156109d2578891610a45575b5094610926565b90508181813d8311610a73575b610a5c8183610b55565b810103126107b457610a6d90610b77565b38610a3e565b503d610a52565b8380fd5b8382346103015781600319360112610301576020906007549051908152f35b83823461030157816003193601126103015760035490516001600160a01b039091168152602090f35b50503461030157606036600319011261030157610ae16114e8565b3560055560243560065560443560075580f35b849034610301578160031936011261030157602090600b548152f35b600435906001600160a01b0382168203610b2657565b600080fd5b67ffffffffffffffff8111610b3f57604052565b634e487b7160e01b600052604160045260246000fd5b90601f8019910116810190811067ffffffffffffffff821117610b3f57604052565b51908115158203610b2657565b91908260c0910312610b2657815191602081015191604082015191606081015191610bbd60a0610bb660808501610b77565b9301610b77565b90565b91908201809211610bcd57565b634e487b7160e01b600052601160045260246000fd5b6000198114610bcd5760010190565b90816020910312610b2657516001600160a01b0381168103610b265790565b81810292918115918404141715610bcd57565b3d15610c5f573d9067ffffffffffffffff8211610b3f5760405191610c53601f8201601f191660200184610b55565b82523d6000602084013e565b606090565b9060009060009160018060a01b039260049084825416946040948551978897637e1c0c0960e01b8952888660209b8c935afa978815610fcc578498610f9d575b5087811015610f9157610cb960065482610bc0565b97808911610f89575b505b87811080610f7e575b15610f7257888386541688519182809263634282af60e01b8252858a83015260249485915afa908115610f68579085918791610f3b575b5016908186526008808c5260ff8a88205416610dac5785600354168a51633ef03e7560e11b8152848a8201528d818581855afa908115610f31578991610efc575b5015610eef578660025416928b518094638e8f294b60e01b8252868c830152818360c09788935afa948515610ee5578a95610ec0575b5050813b15610832578489918b838f51958694859363ce5494bb60e01b85528401525af19081610eb1575b50610dbd575b505050610db890610be3565b610cc4565b8298610def91610db8959489528d528a8820600160ff1982541617905560098d52428b892055600b6107018154610be3565b97612710610dff60075484610c11565b0480151580610ea7575b15610e7e578780808084335af1610e1e610c24565b5015610e6457610e5860008051602061153883398151915291935b8c51908152602081019490945242604085015233939081906060820190565b0390a35b903880610dac565b50600080516020611538833981519152610e588893610e39565b508951918252868c830152428a83015260008051602061153883398151915260603393a3610e5c565b5080471015610e09565b610eba90610b2b565b38610da6565b610ed7929550803d106107e6576107d08183610b55565b505050915050923880610d7b565b8d513d8c823e3d90fd5b50505050610db890610be3565b90508d81813d8311610f2a575b610f138183610b55565b8101031261083257610f2490610b77565b38610d45565b503d610f09565b8c513d8b823e3d90fd5b610f5b91508c8d3d10610f61575b610f538183610b55565b810190610bf2565b38610d04565b503d610f49565b89513d88823e3d90fd5b50959450505050925090565b505a60055410610ccd565b975038610cc2565b50919650909350505050565b9097508881813d8311610fc5575b610fb58183610b55565b81010312610a7a57519638610ca4565b503d610fab565b87513d86823e3d90fd5b60005a60055411611204576001600160a01b039182168082526008602090815260408084205490949060ff166111f3578060035416908551633ef03e7560e11b81528460048201528381602481865afa9081156111e95786916111b4575b50156111a3579060c06024939260025416875194858092638e8f294b60e01b82528860048301525afa928315611199578593611172575b50803b1561043657848091602488518094819363ce5494bb60e01b83528960048401525af1908161115f575b506110ad578451631c2e299560e31b8152600490fd5b6009908385969394955260088152828620600160ff198254161790555242818520556110da600b54610be3565b600b556127106110ec60075484610c11565b049384151580611155575b61112a575b50519081526020810192909252426040830152339160008051602061153883398151915290606090a3600190565b8080808088335af161113a610c24565b506110fc5793506000805160206115388339815191526110fc565b50844710156110f7565b61116b90959195610b2b565b9338611097565b61118c91935060c03d60c0116107e6576107d08183610b55565b505050915050913861106b565b86513d87823e3d90fd5b8551631d91255f60e21b8152600490fd5b90508381813d83116111e2575b6111cb8183610b55565b81010312610432576111dc90610b77565b38611034565b503d6111c1565b87513d88823e3d90fd5b845163e6a0d45f60e01b8152600490fd5b6040516307099c5360e21b8152600490fd5b6001600160a01b0390811660008181526008602052604081205490929060ff166112b0576020906003541691602460405180948193633ef03e7560e11b835260048301525afa9182156112a457809261126e57505090565b9091506020823d60201161129c575b8161128a60209383610b55565b8101031261037f5750610bbd90610b77565b3d915061127d565b604051903d90823e3d90fd5b505090565b67ffffffffffffffff8111610b3f5760051b60200190565b906112d7826112b5565b6112e46040519182610b55565b82815280926112f5601f19916112b5565b0190602036910137565b80518210156113135760209160051b010190565b634e487b7160e01b600052603260045260246000fd5b6004805460408051637e1c0c0960e01b815292956001600160a01b0395909493928616929060209081838a81885afa9283156114dd576000936114ae575b508286101561147c5761137a9086610bc0565b91808311611474575b50848203828111610bcd57611397906112cd565b936000955b8381106113e857505050505090919293506113b6826112cd565b9360005b8381106113c75750505090565b80826113d5600193866112ff565b51166113e182896112ff565b52016113ba565b845163634282af60e01b81528a81018290528381602481865afa9081156114695760009161144c575b5061141b81611216565b611429575b5060010161139c565b87611445918b61143c6001959b8b6112ff565b91169052610be3565b9690611420565b6114639150843d8611610f6157610f538183610b55565b38611411565b86513d6000823e3d90fd5b915038611383565b50955050929450505080519182019082821067ffffffffffffffff831117610b3f575260008152600036813790600090565b90928282813d83116114d6575b6114c58183610b55565b8101031261037f5750519138611367565b503d6114bb565b84513d6000823e3d90fd5b6000546001600160a01b031633036114fc57565b60405163118cdaa760e01b8152336004820152602490fd5b600260015414611525576002600155565b604051633ee5aeb560e01b8152600490fdfe9f1c31b1be83923549adf5d16804f130040b259ab62679a4b27cd2c67a59e372a26469706673582212208c68934c7f96ef8a0e01d929348ecefd5fab9feb0501d5febd1b17f61ecbb88564736f6c63430008180033",
  "linkReferences": {},
  "deployedLinkReferences": {}
}